:100000000C943E000C9450000C9450000C94500042
:100010000C9450000C9450000C9450000C94500020
:100020000C9450000C9450000C9450000C94500010
:100030000C9450000C9450000C9450000C94500000
:100040000C9450000C9450000C9450000C945000F0
:100050000C9450000C9450000C9450000C945000E0
:100060000C9450000C9450000C9450000C945000D0
:100070000C9450000C9450000C94500011241FBE9E
:10008000CFEFCDBFDFE3DEBF28E3A0E0B8E301C0E0
:100090001D92A230B207E1F70E9452000C9470004A
:1000A0000C94000088ED84BF10926100E0E0F4E061
:1000B00080818260808322E0278380910038909144
:1000C0000138019680930038909301383FE784E827
:1000D0009EE1315080409040E1F700C00000ECCF3D
:0400E000F894FFCFC2
:00000001FF
