:100000000C943E000C9450000C9450000C94500042
:100010000C9450000C9450000C9450000C94500020
:100020000C9450000C9450000C9450000C94500010
:100030000C9450000C9450000C9450000C94500000
:100040000C9450000C9450000C9450000C945000F0
:100050000C9450000C9450000C9450000C945000E0
:100060000C9450000C9450000C9450000C945000D0
:100070000C9450000C9450000C94500011241FBE9E
:10008000CFEFCDBFDFE3DEBF28E3A0E0B8E301C0E0
:100090001D92A230B207E1F70E9452000C94730047
:1000A0000C94000088ED84BF10926100E0E0F4E061
:1000B000808182608083099A809100389091013814
:1000C000019680930038909301388FE493EC019768
:1000D000F1F700C0000009988FE493EC0197F1F765
:0A00E00000C00000E8CFF894FFCF45
:00000001FF
