:100000000C943E000C9450000C9450000C94500042
:100010000C9450000C9450000C9450000C94500020
:100020000C9450000C9450000C9450000C94500010
:100030000C9450000C9450000C9450000C94500000
:100040000C9450000C9450000C9450000C945000F0
:100050000C9450000C9450000C9450000C945000E0
:100060000C9450000C9450000C9450000C945000D0
:100070000C9450000C9450000C94500011241FBE9E
:10008000CFEFCDBFDFE3DEBF28E3A0E0B8E301C0E0
:100090001D92A43BB207E1F70E948A000C949700DE
:1000A0000C940000882349F0E0E0F4E082E08583CE
:1000B00094E09A95F1F786830895E0E0F4E082E019
:1000C000858393E09A95F1F786830895CF93DF9324
:1000D000ECE3F8E3C8E7D8E3A0E0B8E388E798E307
:1000E000119219921D92E817F907D1F7DF91CF917C
:1000F0000895D0913C38C7E001E010E0C8010C2E13
:1001000002C0880F991F0A94E2F78D230E945200C3
:10011000C150F4CF88ED84BF10926100E0E0F4E0BC
:100120008081826080830E9466000E947900F8943A
:02013000FFCFFF
:00000001FF
