S01000004E656F506978656C2E73726563F0
S11300000C943E000C945B000C945B000C945B001D
S11300100C945B000C945B000C945B000C945B00F0
S11300200C945B000C945B000C945B000C945B00E0
S11300300C945B000C945B000C945B000C945B00D0
S11300400C945B000C945B000C945B000C945B00C0
S11300500C945B000C945B000C945B000C945B00B0
S11300600C945B000C945B000C945B000C945B00A0
S11300700C945B000C945B000C945B0011241FBE79
S1130080CFEFCDBFDFE3DEBF18E3A0E0B8E3E0EAE3
S1130090F1E002C005900D92A230B107D9F728E330
S11300A0A2E0B8E301C01D92A63BB207E1F70E94AB
S11300B05D000C94CE000C94000088ED84BF82E0B7
S11300C080936100E0E0F4E0808182608083C0E09E
S11300D02FEF4FEF6FEF8C2F0E947400CF5FCC3364
S11300E0B9F70E948700FDCF982F990F890F90E0F0
S11300F08E5F974CFC01E60FF11D6083FC01E40F59
S1130100F11D4083FC01E20FF11D20830895CF937C
S1130110DF93CDB7DEB72697CDBFDEBF84EB90E08B
S113012089839A83809102388B8391B180910038BE
S1130130982B9C8391B1809589238D8388E08E834D
S11301408D8181B94C815D813B812E8189819A8128
S1130150E1E0F0E0A3E0B8E3408337FD04C000C071
S11301600000508308C000C000C000C000C00000F0
S1130170508301C000002A9511F0331FEDCF28E011
S11301803D915083019741F73B832E8389839A8362
S11301902696CDBFDEBFDF91CF910895F894FFCFAF
S10501A0020057
S9030000FC
