:100000000C943E000C945B000C945B000C945B0021
:100010000C945B000C945B000C945B000C945B00F4
:100020000C945B000C945B000C945B000C945B00E4
:100030000C945B000C945B000C945B000C945B00D4
:100040000C945B000C945B000C945B000C945B00C4
:100050000C945B000C945B000C945B000C945B00B4
:100060000C945B000C945B000C945B000C945B00A4
:100070000C945B000C945B000C945B0011241FBE7D
:10008000CFEFCDBFDFE3DEBF18E3A0E0B8E3E4E6E7
:10009000F2E002C005900D92A230B107D9F728E333
:1000A000A2E0B8E301C01D92A63BB207E1F70E94AF
:1000B0005D000C9430010C94000088ED84BF109218
:1000C0006100E0E0F4E0808182608083C0E02FEF97
:1000D0004FEF6FEF8C2F0E94D000CF5FCC33B9F77A
:1000E0000E94E3002FEF88E09DE321508040904084
:1000F000E1F700C00000C0E020E040E06FEF8C2F8F
:100100000E94D000CF5FCC33B9F70E94E3002FEFFD
:1001100088E09DE3215080409040E1F700C000005E
:10012000C0E020E04FEF60E08C2F0E94D000CF5F56
:10013000CC33B9F70E94E3002FEF88E09DE3215014
:1001400080409040E1F700C00000C0E02FEF40E0A9
:1001500060E08C2F0E94D000CF5FCC33B9F70E94B3
:10016000E3002FEF88E09DE3215080409040E1F7CD
:1001700000C00000C0E020E040E060E08C2F0E9462
:10018000D000CF5FCC33B9F70E94E3002FEF88E0B7
:100190009DE3215080409040E1F700C0000096CFE1
:1001A000982F990F890F90E08E5F974CFC01E60F16
:1001B000F11D6083FC01E40FF11D4083FC01E20F9F
:1001C000F11D20830895CF93DF93CDB7DEB7269737
:1001D000CDBFDEBF84EB90E089839A8380910238A3
:1001E0008B8391B180910038982B9C8391B180953D
:1001F00089238D8388E08E838D8181B94C815D81D7
:100200003B812E8189819A81E1E0F0E0A3E0B8E3AF
:10021000408337FD08C000C0508300C000C000C04C
:1002200000C000C00AC0000000C000C000C000C084
:1002300000C00000508301C000002A9511F0331F58
:10024000E7CF28E03D915083019711F73B832E8340
:1002500089839A832696CDBFDEBFDF91CF91089523
:04026000F894FFCF40
:02026400020096
:00000001FF
