S01000004E656F506978656C2E73726563F0
S11300000C943E000C945B000C945B000C945B001D
S11300100C945B000C945B000C945B000C945B00F0
S11300200C945B000C945B000C945B000C945B00E0
S11300300C945B000C945B000C945B000C945B00D0
S11300400C945B000C945B000C945B000C945B00C0
S11300500C945B000C945B000C945B000C945B00B0
S11300600C945B000C945B000C945B000C945B00A0
S11300700C945B000C945B000C945B0011241FBE79
S1130080CFEFCDBFDFE3DEBF18E3A0E0B8E3E8EFD6
S1130090F6E002C005900D92A230B107D9F728E32B
S11300A0A2E0B8E301C01D92A63BB207E1F70E94AB
S11300B044020C947A030C940000181619066CF48C
S11300C020E030E0E7E8F3E13197F1F700C0000009
S11300D02F5F3F4F82179307A9F70895CF92DF92BE
S11300E0FF920F931F93CF93DF93161617068CF48A
S11300F06A018B01F82EC0E0D0E08F2D0E94E4024B
S11301000E942303C6010E945D0021960C171D075F
S1130110A1F7DF91CF911F910F91FF90DF90CF90C6
S113012008957F928F929F92AF92BF92CF92DF9267
S1130130EF92FF920F931F93CF93DF939DEC899FD0
S1130140912C1124969496940F2EF5E0CF2EF02D39
S1130150C0E0D0E0E12CF12C00E0782E95E0999EEF
S113016070181124A92CA194882E1BEF1C0DD72CD8
S1130170C230D10599F034F4209701F1C130D10592
S113018049F01FC0C430D10589F064F0C530D105F1
S113019089F017C00D2DE12CF12C13C0FD2C0D2D71
S11301A0E12C0FC0FD2CE12C00E00BC0ED2CFD2C4C
S11301B000E007C0ED2CF12C00E003C0ED2C0D2D68
S11301C0F12C2E2D4F2D602F812F0E94D9021F5FFD
S11301D0D90C1C11CDCF0F2EF6E0BF2EF02DBC0C88
S11301E01C2DD82CC230D10599F034F4209701F19C
S11301F0C130D10549F01FC0C430D10589F064F085
S1130200C530D10589F017C00D2DE12CF12C13C098
S1130210FD2C0D2DE12C0FC0FD2CE12C00E00BC0BA
S1130220ED2CFD2C00E007C0ED2CF12C00E003C008
S1130230ED2C0D2DF12C2E2D4F2D602F812F0E9492
S1130240D9021F5FDA0CB112CDCF21968AE0C80E15
S113025091E4C9128ACFDF91CF911F910F91FF9042
S1130260EF90DF90CF90BF90AF909F908F907F9052
S11302700895BF92CF92DF92EF92FF920F931F9354
S1130280CF93DF93F82EE62ED42EC22E211102C076
S1130290B12C04C00F2EFBE3BF2EF02DCCE3D0E035
S11302A0CC2061F02D2D4E2D6F2D8B2D0E94D90267
S11302B00E94230381E00E94E40211C02D2D4E2DE3
S11302C06F2D80E00E94D9022D2D4E2D6F2D8BE3D2
S11302D00E94D9020E94230380E00E94E402C80124
S11302E00E945D002197E1F6DF91CF911F910F915C
S11302F0FF90EF90DF90CF90BF9008952F923F92A0
S11303004F925F926F927F928F929F92AF92BF9221
S1130310CF92DF92EF92FF920F931F93CF93DF93CD
S1130320462E4A01611102C0212C04C00F2EFBE3AA
S11303302F2EF02D0F2EF6EFAF2EBB24BA94F02DF6
S11303400F2EFCEECF2EDD24DA94F02D0F2EF2EEDC
S1130350EF2EFF24FA94F02D08ED1FEFC0E0D0E05B
S1130360382E442099F1CA30D1051CF4532C732C37
S1130370612C8AE0A816B10418F4732C512C612C5A
S11303808AE0C816D10418F4632C732C512C8AE02B
S1130390E816F10418F4632C512C712C0A30110561
S11303A018F4532C632C712CC233D1051CF0532C3C
S11303B0612C712C252D462D672D822D0E94D9028A
S11303C00E94230381E00E94E40238C0CA30D105B0
S11303D01CF4532C732C612C8AE0A816B10418F475
S11303E0732C512C612C8AE0C816D10418F4632CA8
S11303F0732C512C8AE0E816F10418F4632C512C68
S1130400712C0A30110518F4532C632C712CC2334F
S1130410D1051CF0532C612C712C252D462D672DF4
S113042080E00E94D902252D462D672D8BE30E9482
S1130430D9020E94230380E00E94E402C4010E94C6
S11304405D0021960F5F1F4F8FEFE81AF80A8FEFB8
S1130450C81AD80A8FEFA81AB80ACC33D10509F004
S113046080CFDF91CF911F910F91FF90EF90DF909C
S1130470CF90BF90AF909F908F907F906F905F9040
S11304804F903F902F90089588ED84BF10926100A3
S1130490E0E0F4E0808182608083C1E00AE010E063
S11304A021E040E060E083E00E9439012FE78AE127
S11304B096E0215080409040E1F700C0000020E029
S11304C040E063E083E00E9439012FE78AE196E08F
S11304D0215080409040E1F700C0000021E040E05E
S11304E063E080E00E9439012FE78AE196E0215021
S11304F080409040E1F700C0000020E043E063E06A
S113050080E00E9439012FE78AE196E02150804083
S11305109040E1F700C0000021E043E060E080E0AB
S11305200E9439012FE78AE196E0215080409040F3
S1130530E1F700C0000020E043E060E083E00E94B7
S113054039012FE78AE196E0215080409040E1F79D
S113055000C00000CC2341F042E350E061E083E0BE
S11305600E947E01C0E004C08FE00E949100C1E0BF
S113057044E650E060EF70E081E00E946E002FE7F7
S113058084E89EE1215080409040E1F700C00000E3
S113059044E650E060EF70E080E00E946E002FE7D8
S11305A084E89EE1215080409040E1F700C00000C3
S11305B075CFE82FEE0F8E0FE82FF0E0EE5FF74CCB
S11305C061834083228308958823D1F0E2E0F8E335
S11305D023EB38E3848181838381808385818283D3
S11305E03396E217F307B1F7E2E0F8E381818093F1
S11305F0B43880818093B33882818093B53808956C
S1130600E2E0F8E38091B43881838091B338808349
S11306108091B5388283E3EBF8E322E038E38EEA95
S1130620A82FB0E0AE5FB74C11969C9111979183BF
S11306309C91908312969C91928383503397E217F6
S1130640F30771F70895CF93DF93CDB7DEB72697FD
S1130650CDBFDEBF84EB90E089839A83809102381A
S11306608B8391B180910038982B9C8391B18095B4
S113067089238D8388E08E838D8181B94C815D814E
S11306803B812E8189819A81E1E0F0E0A3E0B8E327
S1130690408337FD0EC000000000508300000000BE
S11306A00000000000000000000000000000000046
S11306B00EC0000000000000000000000000000068
S11306C00000508300000000000001C000002A95D3
S11306D011F0331FDDCF28E03D9150830197C1F61F
S11306E03B832E8389839A832696CDBFDEBFDF9119
S10B06F0CF910895F894FFCFA7
S10506F80200FA
S9030000FC
