S01000004E656F506978656C2E73726563F0
S11300000C943E000C945B000C945B000C945B001D
S11300100C945B000C945B000C945B000C945B00F0
S11300200C945B000C945B000C945B000C945B00E0
S11300300C945B000C945B000C945B000C945B00D0
S11300400C945B000C945B000C945B000C945B00C0
S11300500C945B000C945B000C945B000C945B00B0
S11300600C945B000C945B000C945B000C945B00A0
S11300700C945B000C945B000C945B0011241FBE79
S1130080CFEFCDBFDFE3DEBF18E3A0E0B8E3EAE7DC
S1130090F2E002C005900D92A230B107D9F728E32F
S11300A0A2E0B8E301C01D92A63BB207E1F70E94AB
S11300B05D000C943B010C94000088ED84BF109209
S11300C06100E0E0F4E0808182608083C0E0D0E001
S11300D00F2EF3E0FF2EF02D00E013E009C0CA302C
S11300E0D10534F40F2EF3E0FF2EF02D00E013E0E1
S11300F0CE019E012A5031092A30310518F4F12C21
S113010000E013E09C01245131092A30310518F430
S1130110F12C03E013E09C012E5131092A30310502
S113012018F4F12C03E010E088970A9730F40F2EAE
S1130130F3E0FF2EF02D03E010E0C233D10534F0DC
S11301400F2EF3E0FF2EF02D00E010E02F2D402FB6
S1130150612F8C2F0E94BF002196CC33D10509F06A
S1130160BECF0E94CA000E94E4002FE38DE093E01A
S1130170215080409040E1F700C00000F2CFE82F0A
S1130180EE0F8E0FE82FF0E0EE5FF74C61834083B3
S113019022830895E2E0F8E323EB38E3848181834A
S11301A083818083858182833396E217F307B1F7D5
S11301B0E2E0F8E381818093B43880818093B3389E
S11301C082818093B5380895CF93DF93CDB7DEB79E
S11301D02697CDBFDEBF84EB90E089839A8380911C
S11301E002388B8391B180910038982B9C8391B114
S11301F0809589238D8388E08E838D8181B94C819C
S11302005D813B812E8189819A81E1E0F0E0A3E068
S1130210B8E3408337FD0EC00000000050830000A7
S113022000000000000000000000000000000000CA
S113023000000EC0000000000000000000000000EC
S113024000000000508300000000000001C0000016
S11302502A9511F0331FDDCF28E03D91508301979B
S1130260C1F63B832E8389839A832696CDBFDEBF56
S10D0270DF91CF910895F894FFCFB9
S105027A02007C
S9030000FC
