:100000000C943E000C945B000C945B000C945B0021
:100010000C945B000C945B000C945B000C945B00F4
:100020000C945B000C945B000C945B000C945B00E4
:100030000C945B000C945B000C945B000C945B00D4
:100040000C945B000C945B000C945B000C945B00C4
:100050000C945B000C945B000C945B000C945B00B4
:100060000C945B000C945B000C945B000C945B00A4
:100070000C945B000C945B000C945B0011241FBE7D
:10008000CFEFCDBFDFE3DEBF18E3A0E0B8E3EEE2E1
:10009000F2E002C005900D92A030B107D9F728E335
:1000A000A0E0B8E301C01D92A43BB207E1F70E94B3
:1000B000FA000C9415010C9400009F92AF92BF922D
:1000C000CF92DF92EF92FF920F931F93CF93DF9324
:1000D0000F2EF5E0CF2EF02DC0E0D0E0E12CF12C7A
:1000E00000E00F2EF6EF9F2EF02D980E0F2EF4EF5E
:1000F000BF2EF02DB80EA82E1BEF1C0DD92CC23030
:10010000D10599F034F4209701F1C130D10549F0BF
:100110001FC0C430D10589F064F0C530D10589F025
:1001200017C00D2DE12CF12C13C0FD2C0D2DE12C51
:100130000FC0FD2CE12C00E00BC0ED2CFD2C00E0ED
:1001400007C0ED2CF12C00E003C0ED2C0D2DF12C9F
:100150002E2D4F2D602F812F0E940A011F5FD394F7
:10016000D3941C11CCCFDC2C1A2DC230D10599F0C0
:1001700034F4209701F1C130D10549F01FC0C430DB
:10018000D10589F064F0C530D10589F017C0012F81
:10019000E12CF12C13C0F12E012FE12C0FC0F12E18
:1001A000E12C00E00BC0E12EF12E00E007C0E12EB3
:1001B000F12C00E003C0E12E012FF12C2E2D4F2D4C
:1001C000602F8D2D0E940A01D39412501B11CDCFA8
:1001D00021968AE0C80E81E4C8128ECFDF91CF91BC
:1001E0001F910F91FF90EF90DF90CF90BF90AF9055
:1001F0009F90089588ED84BF10926100E0E0F4E0E4
:100200008081826080838FE10E945D008FE10E9487
:100210005D00FCCFE82FEE0F8E0FE82FF0E0E050EE
:0E022000F84C6183408322830895F894FFCF49
:00000001FF
