:100000000C943E000C945B000C945B000C945B0021
:100010000C945B000C945B000C945B000C945B00F4
:100020000C945B000C945B000C945B000C945B00E4
:100030000C945B000C945B000C945B000C945B00D4
:100040000C945B000C945B000C945B000C945B00C4
:100050000C945B000C945B000C945B000C945B00B4
:100060000C945B000C945B000C945B000C945B00A4
:100070000C945B000C945B000C945B0011241FBE7D
:10008000CFEFCDBFDFE3DEBF18E3A0E0B8E3E0E6EB
:10009000F2E002C005900D92A230B107D9F728E333
:1000A000A2E0B8E301C01D92A63BB207E1F70E94AF
:1000B0005D000C942E010C94000088ED84BF10921A
:1000C0006100E0E0F4E0808182608083C0E020E0B5
:1000D00040E06FE78C2F0E94A600CF5FCC33B9F7CA
:1000E0000E94B9002FEF88E09DE3215080409040AE
:1000F000E1F700C00000C0E020E04FE760E08C2F97
:100100000E94A600CF5FCC33B9F70E94B9002FEF51
:1001100088E09DE3215080409040E1F700C000005E
:10012000C0E02FE740E060E08C2F0E94A600CF5F88
:10013000CC33B9F70E94B9002FEF88E09DE321503E
:1001400080409040E1F700C00000C0CF982F990F89
:10015000890F90E08E5F974CFC01E60FF11D6083E4
:10016000FC01E40FF11D4083FC01E20FF11D20832F
:100170000895CF93DF93CDB7DEB72797CDBFDEBF0E
:1001800084EB90E089839A83809102388B831F826D
:10019000E0E0F4E0948180910038982B9C83948176
:1001A000809589238D838D818E838B81882314F4A0
:1001B0008C818E835C816D814B813E812F81898111
:1001C0009A81E3E0F8E351B9262F31B900C046FD2A
:1001D000252F61B900C051B9362F21B900C045FDA6
:1001E000352F61B900C051B9262F31B900C044FD87
:1001F000252F61B900C051B9362F21B900C043FD88
:10020000352F61B900C051B9262F31B900C042FD68
:10021000252F61B900C051B9362F21B900C041FD69
:10022000352F61B900C051B9262F31B900C040FD4A
:10023000252F61B9019751B9362F21B9419147FD59
:10024000352F61B901F64B833E832F8389839A83CF
:100250002796CDBFDEBFDF91CF910895F894FFCFF1
:0202600002009A
:00000001FF
