S01000004E656F506978656C2E73726563F0
S11300000C943E000C945B000C945B000C945B001D
S11300100C945B000C945B000C945B000C945B00F0
S11300200C945B000C945B000C945B000C945B00E0
S11300300C945B000C945B000C945B000C945B00D0
S11300400C945B000C945B000C945B000C945B00C0
S11300500C945B000C945B000C945B000C945B00B0
S11300600C945B000C945B000C945B000C945B00A0
S11300700C945B000C945B000C945B0011241FBE79
S1130080CFEFCDBFDFE3DEBF18E3A0E0B8E3ECEAD7
S1130090F1E002C005900D92A230B107D9F728E330
S11300A0A2E0B8E301C01D92A63BB207E1F70E94AB
S11300B05D000C94D4000C94000088ED84BF82E0B1
S11300C080936100E0E0F4E0808182608083C0E09E
S11300D020E040E060E08C2F0E947400CF5FCC33BE
S11300E0B9F70E948700FDCF982F990F890F90E0F0
S11300F08E5F974CFC01E60FF11D6083FC01E40F59
S1130100F11D4083FC01E20FF11D20830895CF937C
S1130110DF93CDB7DEB72797CDBFDEBF84EB90E08A
S113012089839A83809102388B8391B180910038BE
S1130130982B9C8391B1809589238D838D818E83A7
S113014088E08F838D8181B95C816D814B813F8192
S11301502E8189819A81E1E0F0E0A3E0B8E3508345
S113016047FD252F3A9500C0000000000000000064
S11301700000000000000000000000002083262F83
S113018019F0441F6083EBCF38E04D9160830197F1
S113019031F74B833F832E8389839A832796CDBF80
S10F01A0DEBFDF91CF910895F894FFCFEB
S10501AC02004B
S9030000FC
