:100000000C943E000C945B000C945B000C945B0021
:100010000C945B000C945B000C945B000C945B00F4
:100020000C945B000C945B000C945B000C945B00E4
:100030000C945B000C945B000C945B000C945B00D4
:100040000C945B000C945B000C945B000C945B00C4
:100050000C945B000C945B000C945B000C945B00B4
:100060000C945B000C945B000C945B000C945B00A4
:100070000C945B000C945B000C945B0011241FBE7D
:10008000CFEFCDBFDFE3DEBF18E3A0E0B8E3ECE6DF
:10009000F3E002C005900D92A230B107D9F728E332
:1000A000A2E0B8E301C01D92A63BB207E1F70E94AF
:1000B000E7000C94B4010C940000181619066CF4B7
:1000C00020E030E0E7E8F3E13197F1F700C000000D
:1000D0002F5F3F4F82179307A9F70895CF92DF92C2
:1000E000FF920F931F93CF93DF93161617068CF48E
:1000F0006A018B01F82EC0E0D0E08F2D0E941E0116
:100100000E945D01C6010E945D0021960C171D072B
:10011000A1F7DF91CF911F910F91FF90DF90CF90CA
:100120000895FF920F931F93CF93DF93C0E0D0E029
:100130000F2EF3E0FF2EF02D00E013E009C0CA30CF
:10014000D10534F40F2EF3E0FF2EF02D00E013E084
:10015000CE019E012A5031092A30310518F4F12CC4
:1001600000E013E09C01245131092A30310518F4D4
:10017000F12C03E013E09C012E5131092A303105A6
:1001800018F4F12C03E010E088970A9730F40F2E52
:10019000F3E0FF2EF02D03E010E0C233D10534F080
:1001A0000F2EF3E0FF2EF02D00E010E02F2D402F5A
:1001B000612F8C2F0E9413012196CC33D10509F0B9
:1001C000BECFDF91CF911F910F91FF90089588EDE1
:1001D00084BF10926100E0E0F4E08081826080835F
:1001E0000E94910044E650E060EF70E081E00E94E0
:1001F0006E002FE784E89EE1215080409040E1F7B7
:1002000000C0000044E650E060EF70E080E00E9433
:100210006E002FE784E89EE1215080409040E1F796
:1002200000C00000DFCFE82FEE0F8E0FE82FF0E0C8
:10023000EE5FF74C61834083228308958823D1F0D9
:10024000E2E0F8E323EB38E38481818383818083D8
:10025000858182833396E217F307B1F7E2E0F8E392
:1002600081818093B43880818093B3388281809378
:10027000B5380895E2E0F8E38091B4388183809145
:10028000B33880838091B5388283E3EBF8E322E0D2
:1002900038E38EEAA82FB0E0AE5FB74C11969C9180
:1002A000119791839C91908312969C919283835095
:1002B0003397E217F30771F70895CF93DF93CDB724
:1002C000DEB72697CDBFDEBF84EB90E089839A83AB
:1002D000809102388B8391B180910038982B9C8358
:1002E00091B1809589238D8388E08E838D8181B93A
:1002F0004C815D813B812E8189819A81E1E0F0E032
:10030000A3E0B8E3408337FD0EC000000000508337
:1003100000000000000000000000000000000000DD
:10032000000000000EC000000000000000000000FF
:10033000000000000000508300000000000001C029
:1003400000002A9511F0331FDDCF28E03D91508346
:100350000197C1F63B832E8389839A832696CDBF6E
:0C036000DEBFDF91CF910895F894FFCF2D
:02036C0002008D
:00000001FF
