:100000000C943E000C945B000C945B000C945B0021
:100010000C945B000C945B000C945B000C945B00F4
:100020000C945B000C945B000C945B000C945B00E4
:100030000C945B000C945B000C945B000C945B00D4
:100040000C945B000C945B000C945B000C945B00C4
:100050000C945B000C945B000C945B000C945B00B4
:100060000C945B000C945B000C945B000C945B00A4
:100070000C945B000C945B000C945B0011241FBE7D
:10008000CFEFCDBFDFE3DEBF18E3A0E0B8E3E6E0EB
:10009000F2E002C005900D92A230B107D9F728E333
:1000A000A2E0B8E301C01D92A63BB207E1F70E94AF
:1000B0005D000C9401010C94000088ED84BF82E087
:1000C00080936100E0E0F4E0808182608083C0E0A2
:1000D00020E040E06FEF8C2F0E94A700CF5FCC3371
:1000E000B9F70E94BA002FEF88E09DE321508040CD
:1000F0009040E1F700C00000C0E020E04FEF60E07A
:100100008C2F0E94A700CF5FCC33B9F70E94BA00B2
:100110002FEF88E09DE3215080409040E1F700C040
:100120000000C0E02FEF40E060E08C2F0E94A700AD
:10013000CF5FCC33B9F70E94BA002FEF88E09DE380
:10014000215080409040E1F700C00000C0CF982FC0
:10015000990F890F90E08E5F974CFC01E60FF11D1F
:100160006083FC01E40FF11D4083FC01E20FF11DEF
:1001700020830895CF93DF93CDB7DEB72797CDBF08
:10018000DEBF84EB90E089839A83809102388B8371
:1001900091B180910038982B9C8391B180958923EF
:1001A0008D838D818E8388E08F835D816C814B810F
:1001B0003F812E8189819A81E1E0F0E0A3E0B8E3FC
:1001C000508347FD252F3A952083262F49F0441F61
:1001D00000C00000000000006083000000C0F0CFFD
:1001E00038E04D9160830000019751F74B833F83C6
:1001F0002E8389839A832796CDBFDEBFDF91CF916F
:060200000895F894FFCF01
:020206000200F4
:00000001FF
