:100000000C943E000C945B000C945B000C945B0021
:100010000C945B000C945B000C945B000C945B00F4
:100020000C945B000C945B000C945B000C945B00E4
:100030000C945B000C945B000C945B000C945B00D4
:100040000C945B000C945B000C945B000C945B00C4
:100050000C945B000C945B000C945B000C945B00B4
:100060000C945B000C945B000C945B000C945B00A4
:100070000C945B000C945B000C945B0011241FBE7D
:10008000CFEFCDBFDFE3DEBF18E3A0E0B8E3E8E1E8
:10009000F4E002C005900D92A230B107D9F728E331
:1000A000A2E0B8E301C01D92A63BB207E1F70E94AF
:1000B00091000C940A020C940000E0E0F4E08081CE
:1000C0008E6080830B9A0A98099808950A9A82E4B0
:1000D0008A95F1F700C00A9882E48A95F1F700C08A
:1000E00008950B9A82E48A95F1F700C00B9882E498
:1000F0008A95F1F700C00895CF93DF93D82F0A981F
:100100000998C8E0D7FF02C0099A01C009980E9467
:100110006600DD0FC150B1F70A98DF91CF910C94C2
:10012000710088ED84BF109261000E94BC006FE0F6
:1001300082E098E30E9467018FE10E94650182E0FE
:1001400098E30E940E0161E082E098E30E94CF00F4
:100150008AEF90E00E94AD00F6CF20E030E0281753
:1001600039074CF4E7E8F3E13197F1F700C00000FC
:100170002F5F3F4FF4CF0895E0E0F4E0808180618D
:1001800080830C945D000F93362F330F630FFC01B7
:10019000E60FF11D4183208302830F910895CF93D1
:1001A000DF93FC01DC01AF54BF4FEC016623B9F0D3
:1001B0008C8189838B8188838D818A832396AC1778
:1001C000BD07B1F7EF01CE54DF4F81818883808175
:1001D0008C93DF01AD54BF4F82818C931CC0CE54F1
:1001E000DF4F888181838C918083219688818283EF
:1001F0008EEAEF01C80FD11D998111969C9311973A
:1002000098819C939A8112969C931297835013978E
:10021000AE17BF0771F7DF91CF910895CF93DF93AA
:10022000CDB7DEB72697CDBFDEBF24EB30E0298304
:100230003A83DC011196FC0180818E8391B180911B
:100240000038982B9C8391B1809589238D8388E019
:100250008B838C8181B94D815C813E812B81898129
:100260009A81E1E0F0E0408337FD0EC0000000001D
:1002700050830000000000000000000000000000AB
:100280000000000000000EC00000000000000000A0
:10029000000000000000000050830000000000008B
:1002A00001C000002A9511F0331FDDCF28E03D91F9
:1002B00050830197C1F63E832B8389839A832696C8
:1002C000CDBFDEBFDF91CF9108950C947C007F926B
:1002D0008F929F92AF92BF92CF92DF92EF92FF9256
:1002E0000F931F93CF93DF937C01C62E862F65E07B
:1002F0000E94FE01B82EAC2C85E0B89EA0181124F7
:10030000D12CC0E0D0E09B2C91941A2D812CC330CD
:10031000D105A9F03CF4C130D105D9F0C230D105E6
:1003200051F006C0C430D10569F0C530D10569F07F
:10033000012F412F10C0212F412F00E00DC0212F90
:1003400000E005C0012F212F02C0012F20E040E076
:1003500003C0412F00E020E0682D6D0DC7010E9411
:10036000C30083941B0D85E08812D1CF1C2D812CF6
:1003700085E0782E7D0CC330D105A9F03CF4C13066
:10038000D105D9F0C230D10551F006C0C430D10535
:1003900069F0C530D10569F0012F412F10C0212F20
:1003A000412F00E00DC0212F00E005C0012F212FBB
:1003B00002C0012F20E040E003C0412F00E020E018
:1003C000672D680DC7010E94C3008394190D86E054
:1003D0008812D1CF21968AE0D80E8CE3D81295CF1F
:1003E000DF91CF911F910F91FF90EF90DF90CF9011
:1003F000BF90AF909F908F907F900895991B79E068
:1004000004C0991F961708F0961B881F7A95C9F7A4
:0804100080950895F894FFCFD8
:020418001000D2
:00000001FF
