S01000004E656F53747269702E73726563E0
S11300000C943E000C945B000C945B000C945B001D
S11300100C945B000C945B000C945B000C945B00F0
S11300200C945B000C945B000C945B000C945B00E0
S11300300C945B000C945B000C945B000C945B00D0
S11300400C945B000C945B000C945B000C945B00C0
S11300500C945B000C945B000C945B000C945B00B0
S11300600C945B000C945B000C945B000C945B00A0
S11300700C945B000C945B000C945B0011241FBE79
S1130080CFEFCDBFDFE3DEBF18E3A0E0B8E3EEEAD5
S1130090F6E002C005900D92A230B107D9F728E32B
S11300A0A2E0B8E301C01D92A63BB207E1F70E94AB
S11300B015020C9455030C94000020E030E028173E
S11300C039074CF4E7E8F3E13197F1F700C0000099
S11300D02F5F3F4FF4CF0895CF92DF92FF920F939B
S11300E01F93CF93DF93F82E8B016A01C0E0D0E019
S11300F0C017D10754F48F2D0E94B5020E94F2025A
S1130100C6010E945D002196F3CFDF91CF911F912C
S11301100F91FF90DF90CF900895AF92BF92CF924E
S1130120DF92EF92FF920F931F93CF93DF93E82E0A
S113013065E00E944903D82ECE2C85E0D89EC018D5
S1130140112400E0C0E0D0E0BD2CB1941C2DF12CB2
S1130150C330D105A9F03CF4C130D105D9F0C23087
S1130160D10551F006C0C430D10569F0C530D105C0
S113017069F0212F612F10C0412F612F20E00DC0A5
S1130180412F20E005C0212F412F02C0212F40E044
S113019060E003C0612F20E040E08F2D800F0E94BB
S11301A0AA02F3941D0D85E0F812D2CF1E2DF12C76
S11301B085E0A82EA00EC330D105A9F03CF4C130CF
S11301C0D105D9F0C230D10551F006C0C430D105F3
S11301D069F0C530D10569F0212F612F10C0412F7E
S11301E0612F20E00DC0412F20E005C0212F412FB9
S11301F002C0212F40E060E003C0612F20E040E016
S11302008A2D8F0D0E94AA02F3941B0D86E0F8122A
S1130210D2CF2196065F0C3309F098CFDF91CF91AE
S11302201F910F91FF90EF90DF90CF90BF90AF9010
S11302300895AF92BF92CF92DF92EF92FF920F9305
S11302401F93CF93DF93F82EE62ED42EC22E58019F
S1130250211102C010E001C01BE3CCE3D0E02D2D3E
S11302604E2D6F2DCC2039F0812F0E94AA020E94BE
S1130270F20281E00CC080E00E94AA022D2D4E2DD6
S11302806F2D8BE30E94AA020E94F20280E00E947A
S1130290B502C5010E945D00219709F7DF91CF9156
S11302A01F910F91FF90EF90DF90CF90BF90AF9090
S11302B008952F923F924F925F926F927F928F9206
S11302C09F92AF92BF92CF92DF92EF92FF920F93E1
S11302D01F93CF93DF93782E262E4A01611102C01B
S11302E0312C02C03BE3332E06EF1FEF8CEEE82ED9
S11302F0FF24FA9492EEC92EDD24DA9428EDA22E7E
S1130300BB24BA94C0E0D0E0222089F1CA30D105E0
S11303101CF4472C672C512C0A30110518F4672C57
S1130320412C512C8AE0E816F10418F4572C672C60
S1130330412C8AE0C816D10418F4572C412C612CA6
S11303408AE0A816B10430F0C233D10534F0472C4A
S1130350512C02C0472C572C612C242D452D662D81
S1130360832D0E94AA020E94F20281E036C0CA30A4
S1130370D1051CF4472C672C512C0A30110518F4B4
S1130380672C412C512C8AE0E816F10418F4572C00
S1130390672C412C8AE0C816D10418F4572C412C40
S11303A0612C8AE0A816B10430F0C233D10534F0D0
S11303B0472C512C02C0472C572C612C242D452D41
S11303C0662D80E00E94AA02242D452D662D8BE324
S11303D00E94AA020E94F20280E00E94B502C401B7
S11303E00E945D0021968FEFA81AB80A8FEFC81AF1
S11303F0D80A8FEFE81AF80A0F5F1F4FCC33D105E4
S113040009F082CFDF91CF911F910F91FF90EF9070
S1130410DF90CF90BF90AF909F908F907F906F9020
S11304205F904F903F902F90089588ED84BF109275
S1130430610080910004826080930004C1E00AE0BE
S113044010E021E040E060E083E00E9419012FE722
S11304508AE196E0215080409040E1F700C000001E
S113046020E040E063E083E00E9419012FE78AE185
S113047096E0215080409040E1F700C0000021E068
S113048040E063E080E00E9419012FE78AE196E0F2
S1130490215080409040E1F700C0000020E043E09C
S11304A063E080E00E9419012FE78AE196E0215081
S11304B080409040E1F700C0000021E043E060E0AC
S11304C080E00E9419012FE78AE196E021508040E4
S11304D09040E1F700C0000020E043E060E083E0EA
S11304E00E9419012FE78AE196E021508040904054
S11304F0E1F700C00000CC2341F042E350E061E0AA
S113050083E00E945901C0E004C08FE00E948D0086
S1130510C1E044E650E060EF70E081E00E946C00CE
S11305202FE784E89EE1215080409040E1F700C02D
S1130530000044E650E060EF70E080E00E946C0050
S11305402FE784E89EE1215080409040E1F700C00D
S1130550000075CFE82FEE0F8E0FE82FF0E0EE5F6E
S1130560F74C61834083228308958823D1F0E2E02D
S1130570F8E38481818383818083858182833396B8
S113058088E3E33BF807A9F7809103388093B438F4
S1130590809102388093B338809104388093B538C1
S11305A008958091B438809303388091B338809350
S11305B002388091B53880930438E3EBF8E38EEA8F
S11305C0A82FB0E0AE5FB74C11969C911197918320
S11305D09C91908312969C919283835033978D3F84
S11305E079F70895CF93DF93CDB7DEB72697CDBFC4
S11305F0DEBF84EB90E089839A83809102388E83F6
S113060091B180910038982B9D8391B18095892375
S11306108C8388E08B838C8181B94D815C813E81A0
S11306202B8189819A81E1E0F0E0A3E0B8E3408383
S113063037FD0EC0000000005083000000000000E1
S113064000000000000000000000000000000EC0D8
S11306500000000000000000000000000000000096
S1130660508300000000000001C000002A9511F032
S1130670331FDDCF28E03D9150830197C1F63E83BF
S11306802B8389839A832696CDBFDEBFDF91CF91DA
S11306900895991B79E004C0991F961708F0961BDA
S11106A0881F7A95C9F780950895F894FFCFC6
S10506AE020044
S9030000FC
